{
  "contractName": "Shop",
  "abi": [
    {
      "constant": true,
      "inputs": [],
      "name": "buyer",
      "outputs": [
        {
          "name": "",
          "type": "address"
        }
      ],
      "payable": false,
      "stateMutability": "view",
      "type": "function",
      "signature": "0x7150d8ae"
    },
    {
      "inputs": [],
      "payable": false,
      "stateMutability": "nonpayable",
      "type": "constructor",
      "signature": "constructor"
    },
    {
      "constant": true,
      "inputs": [],
      "name": "listProductNames",
      "outputs": [
        {
          "name": "",
          "type": "string[]"
        }
      ],
      "payable": false,
      "stateMutability": "view",
      "type": "function",
      "signature": "0x824687b8"
    },
    {
      "constant": true,
      "inputs": [],
      "name": "getOwnerPoints",
      "outputs": [
        {
          "name": "points",
          "type": "uint256"
        }
      ],
      "payable": false,
      "stateMutability": "view",
      "type": "function",
      "signature": "0xdc2d3f82"
    },
    {
      "constant": true,
      "inputs": [],
      "name": "getOwnerBalance",
      "outputs": [
        {
          "name": "balance",
          "type": "uint256"
        }
      ],
      "payable": false,
      "stateMutability": "view",
      "type": "function",
      "signature": "0x590791f2"
    },
    {
      "constant": false,
      "inputs": [],
      "name": "buyMemberCard",
      "outputs": [],
      "payable": true,
      "stateMutability": "payable",
      "type": "function",
      "signature": "0xc82be5ab"
    },
    {
      "constant": false,
      "inputs": [
        {
          "name": "productId",
          "type": "uint256"
        }
      ],
      "name": "buyWithCrypto",
      "outputs": [],
      "payable": true,
      "stateMutability": "payable",
      "type": "function",
      "signature": "0xa85017e2"
    },
    {
      "constant": false,
      "inputs": [
        {
          "name": "productId",
          "type": "uint256"
        }
      ],
      "name": "buyWithPoints",
      "outputs": [],
      "payable": false,
      "stateMutability": "nonpayable",
      "type": "function",
      "signature": "0xece0e59b"
    }
  ],
  "bytecode": "0x6080604052336000806101000a81548173ffffffffffffffffffffffffffffffffffffffff021916908373ffffffffffffffffffffffffffffffffffffffff1602179055503480156200005157600080fd5b5033600160006101000a81548173ffffffffffffffffffffffffffffffffffffffff021916908373ffffffffffffffffffffffffffffffffffffffff160217905550600060346000600160009054906101000a900473ffffffffffffffffffffffffffffffffffffffff1673ffffffffffffffffffffffffffffffffffffffff1673ffffffffffffffffffffffffffffffffffffffff16815260200190815260200160002060000181905550600060346000600160009054906101000a900473ffffffffffffffffffffffffffffffffffffffff1673ffffffffffffffffffffffffffffffffffffffff1673ffffffffffffffffffffffffffffffffffffffff16815260200190815260200160002060010160006101000a81548160ff02191690831515021790555060008090505b600a811015620002b0576040805190810160405280600481526020017f4361726400000000000000000000000000000000000000000000000000000000815250600282600a81101515620001d057fe5b600502016000019080519060200190620001ec929190620002b7565b5067016345785d8a0000600282600a811015156200020657fe5b60050201600101819055506003600282600a811015156200022357fe5b60050201600201819055506001600282600a811015156200024057fe5b60050201600301819055506000600282600a811015156200025d57fe5b6005020160040160006101000a81548173ffffffffffffffffffffffffffffffffffffffff021916908373ffffffffffffffffffffffffffffffffffffffff160217905550808060010191505062000180565b5062000366565b828054600181600116156101000203166002900490600052602060002090601f016020900481019282601f10620002fa57805160ff19168380011785556200032b565b828001600101855582156200032b579182015b828111156200032a5782518255916020019190600101906200030d565b5b5090506200033a91906200033e565b5090565b6200036391905b808211156200035f57600081600090555060010162000345565b5090565b90565b610e4680620003766000396000f3fe608060405260043610610083576000357c0100000000000000000000000000000000000000000000000000000000900463ffffffff168063590791f2146100885780637150d8ae146100b3578063824687b8146100de578063a85017e214610109578063c82be5ab14610125578063dc2d3f821461012f578063ece0e59b1461015a575b600080fd5b34801561009457600080fd5b5061009d610183565b6040516100aa9190610d37565b60405180910390f35b3480156100bf57600080fd5b506100c86101a5565b6040516100d59190610c1a565b60405180910390f35b3480156100ea57600080fd5b506100f36101cb565b6040516101009190610c35565b60405180910390f35b610123600480360361011e9190810190610988565b6102f4565b005b61012d6104b6565b005b34801561013b57600080fd5b506101446105f3565b6040516101519190610d37565b60405180910390f35b34801561016657600080fd5b50610181600480360361017c9190810190610988565b610640565b005b60003373ffffffffffffffffffffffffffffffffffffffff1631905080905090565b600160009054906101000a900473ffffffffffffffffffffffffffffffffffffffff1681565b606080600a60405190808252806020026020018201604052801561020357816020015b60608152602001906001900390816101ee5790505b50905060008090505b600a8110156102ec57600281600a8110151561022457fe5b600502016000018054600181600116156101000203166002900480601f0160208091040260200160405190810160405280929190818152602001828054600181600116156101000203166002900480156102bf5780601f10610294576101008083540402835291602001916102bf565b820191906000526020600020905b8154815290600101906020018083116102a257829003601f168201915b505050505082828151811015156102d257fe5b90602001906020020181905250808060010191505061020c565b508091505090565b6102fd8161087d565b151561033e576040517f08c379a000000000000000000000000000000000000000000000000000000000815260040161033590610c57565b60405180910390fd5b600281600a8110151561034d57fe5b60050201600101543373ffffffffffffffffffffffffffffffffffffffff1631101515156103b0576040517f08c379a00000000000000000000000000000000000000000000000000000000081526004016103a790610cf7565b60405180910390fd5b33600282600a811015156103c057fe5b6005020160040160006101000a81548173ffffffffffffffffffffffffffffffffffffffff021916908373ffffffffffffffffffffffffffffffffffffffff16021790555060011515603460003373ffffffffffffffffffffffffffffffffffffffff1673ffffffffffffffffffffffffffffffffffffffff16815260200190815260200160002060010160009054906101000a900460ff16151514156104b3576001603460003373ffffffffffffffffffffffffffffffffffffffff1673ffffffffffffffffffffffffffffffffffffffff168152602001908152602001600020600001600082825401925050819055505b50565b60001515603460003373ffffffffffffffffffffffffffffffffffffffff1673ffffffffffffffffffffffffffffffffffffffff16815260200190815260200160002060010160009054906101000a900460ff16151514151561054e576040517f08c379a000000000000000000000000000000000000000000000000000000000815260040161054590610d17565b60405180910390fd5b6001603460003373ffffffffffffffffffffffffffffffffffffffff1673ffffffffffffffffffffffffffffffffffffffff16815260200190815260200160002060010160006101000a81548160ff021916908315150217905550600a603460003373ffffffffffffffffffffffffffffffffffffffff1673ffffffffffffffffffffffffffffffffffffffff16815260200190815260200160002060000181905550565b6000603460003373ffffffffffffffffffffffffffffffffffffffff1673ffffffffffffffffffffffffffffffffffffffff16815260200190815260200160002060000154905080905090565b60011515603460003373ffffffffffffffffffffffffffffffffffffffff1673ffffffffffffffffffffffffffffffffffffffff16815260200190815260200160002060010160009054906101000a900460ff1615151415156106d8576040517f08c379a00000000000000000000000000000000000000000000000000000000081526004016106cf90610c77565b60405180910390fd5b6106e18161087d565b1515610722576040517f08c379a000000000000000000000000000000000000000000000000000000000815260040161071990610c57565b60405180910390fd5b600281600a8110151561073157fe5b6005020160020154603460003373ffffffffffffffffffffffffffffffffffffffff1673ffffffffffffffffffffffffffffffffffffffff16815260200190815260200160002060000154101515156107bf576040517f08c379a00000000000000000000000000000000000000000000000000000000081526004016107b690610cd7565b60405180910390fd5b33600282600a811015156107cf57fe5b6005020160040160006101000a81548173ffffffffffffffffffffffffffffffffffffffff021916908373ffffffffffffffffffffffffffffffffffffffff160217905550600281600a8110151561082357fe5b6005020160020154603460003373ffffffffffffffffffffffffffffffffffffffff1673ffffffffffffffffffffffffffffffffffffffff1681526020019081526020016000206000016000828254039250508190555050565b6000600a821015156108c4576040517f08c379a00000000000000000000000000000000000000000000000000000000081526004016108bb90610cb7565b60405180910390fd5b600073ffffffffffffffffffffffffffffffffffffffff16600283600a811015156108eb57fe5b6005020160040160009054906101000a900473ffffffffffffffffffffffffffffffffffffffff1673ffffffffffffffffffffffffffffffffffffffff1614151561096b576040517f08c379a000000000000000000000000000000000000000000000000000000000815260040161096290610c97565b60405180910390fd5b60019050919050565b60006109808235610dbe565b905092915050565b60006020828403121561099a57600080fd5b60006109a884828501610974565b91505092915050565b6109ba81610d82565b82525050565b60006109cb82610d5f565b808452602084019350836020820285016109e485610d52565b60005b84811015610a1d5783830388526109ff838351610a2e565b9250610a0a82610d75565b91506020880197506001810190506109e7565b508196508694505050505092915050565b6000610a3982610d6a565b808452610a4d816020860160208601610dc8565b610a5681610dfb565b602085010191505092915050565b6000602a82527f546869732070726f6475637420646f65736e2774206578697374206f7220686160208301527f7320616e206f776e6572000000000000000000000000000000000000000000006040830152606082019050919050565b6000602082527f596f7520646f6e277420686176652061206d656d6265727368697020636172646020830152604082019050919050565b6000601982527f546869732070726f647563742068617320616e206f776e6572000000000000006020830152604082019050919050565b6000601a82527f5468697320706f6475637420646f6573206e6f742065786973740000000000006020830152604082019050919050565b6000601282527f496e737566666963656e7420706f696e747300000000000000000000000000006020830152604082019050919050565b6000601882527f496e737566666963656e742063727970746f2066756e647300000000000000006020830152604082019050919050565b6000601e82527f796f7520616c726561647920686176652061206d656d626572206361726400006020830152604082019050919050565b610c1481610db4565b82525050565b6000602082019050610c2f60008301846109b1565b92915050565b60006020820190508181036000830152610c4f81846109c0565b905092915050565b60006020820190508181036000830152610c7081610a64565b9050919050565b60006020820190508181036000830152610c9081610ac1565b9050919050565b60006020820190508181036000830152610cb081610af8565b9050919050565b60006020820190508181036000830152610cd081610b2f565b9050919050565b60006020820190508181036000830152610cf081610b66565b9050919050565b60006020820190508181036000830152610d1081610b9d565b9050919050565b60006020820190508181036000830152610d3081610bd4565b9050919050565b6000602082019050610d4c6000830184610c0b565b92915050565b6000602082019050919050565b600081519050919050565b600081519050919050565b6000602082019050919050565b6000610d8d82610d94565b9050919050565b600073ffffffffffffffffffffffffffffffffffffffff82169050919050565b6000819050919050565b6000819050919050565b60005b83811015610de6578082015181840152602081019050610dcb565b83811115610df5576000848401525b50505050565b6000601f19601f830116905091905056fea265627a7a723058206ad385f018fee55e0b6dcc991a0a69bfad86d19eb369107e825f1c0c3fc891026c6578706572696d656e74616cf50037",
  "source": "// SPDX-License-Identifier: MIT\npragma solidity ^0.5.0;\npragma experimental ABIEncoderV2;\n\ncontract Shop {\n    // fixed number of item to display\n    uint256 constant TOTAL_ITEM = 10;\n    // represents the owner of the contract\n    address private owner = msg.sender;\n    address public buyer;\n\n    // init customer object\n    struct Customer {\n        uint256 point;\n        bool member;\n        address productBuyed;\n    }\n\n    // init product object\n    struct Product {\n        string name;\n        uint256 cryptoPrice;\n        uint256 pointValue;\n        uint256 reward;\n        address owner;\n    }\n\n    Product[TOTAL_ITEM] private products;\n    mapping(address => Customer) private customers;\n\n    constructor() public {\n        // the buyer will be the msg sender\n        buyer = msg.sender;\n        // each buyer will have 10 points free\n        customers[buyer].point = 0;\n        // each buyer have the membership card\n        customers[buyer].member = false;\n\n        // assigning default attribute value to 10 products\n        for (uint256 index = 0; index < TOTAL_ITEM; index++) {\n            products[index].name = \"Card\";\n            // each product will cost 0.1 eth\n            products[index].cryptoPrice = 1e17;\n            // each product have 3 point value\n            products[index].pointValue = 3;\n            // each product gives one reward point if it is purchased\n            products[index].reward = 1;\n            // each product have no owner initially\n            products[index].owner = address(0x0);\n        }\n    }\n\n    // list all products\n    function listProductNames() public view returns (string[] memory) {\n        // Create a memory array to hold the product names\n        string[] memory productNames = new string[](TOTAL_ITEM);\n\n        // Loop through the products and extract names\n        for (uint256 i = 0; i < TOTAL_ITEM; i++) {\n            productNames[i] = products[i].name; // Store only the name\n        }\n\n        // Return the array of product names\n        return productNames;\n    }\n\n    // Function to retrieve the points of the buyer based on their address.\n    function getOwnerPoints() public view returns (uint256 points) {\n        points = customers[msg.sender].point;\n        return points;\n    }\n\n    // Function to retrieve the balance of the buyer based on their address.\n    function getOwnerBalance() public view returns (uint256 balance) {\n        balance = msg.sender.balance;\n        return balance;\n    }\n\n    // Checks whether the product exists and has no owner.\n    function ValidateProduct(uint256 productId) private view returns (bool) {\n        require(productId < TOTAL_ITEM, \"This poduct does not exist\");\n        require(products[productId].owner == address(0x0),\"This product has an owner\");\n        return true;\n    }\n\n    // buys a membership card\n    function buyMemberCard() external payable {\n        require(customers[msg.sender].member == false, \"you already have a member card\");\n        customers[msg.sender].member = true;\n        customers[msg.sender].point = 10;\n    }\n\n    // buys a product with ETH\n    function buyWithCrypto(uint256 productId) external payable {\n        // calls the ValidateProduct mehod to check if the product has an owner or doesn't exist\n        require(ValidateProduct(productId),\"This product doesn't exist or has an owner\");\n        // checks if the buyer has enough funds to buy\n        require(msg.sender.balance >= products[productId].cryptoPrice,\"Insufficent crypto funds\");\n        // changes the owner of the product\n        products[productId].owner = msg.sender;\n        if (customers[msg.sender].member == true) {\n            // adds the reward for buying a product\n            customers[msg.sender].point += 1;\n        }\n    }\n\n    // Buys product with earned points\n    function buyWithPoints(uint256 productId) public {\n        // calls the ValidateProduct mehod to check if the product has an owner or doesn't exist\n        require(customers[msg.sender].member == true , \"You don't have a membership card\");\n        require(ValidateProduct(productId),\"This product doesn't exist or has an owner\");\n        // checks if the buyer has enough points to buy\n        require(customers[msg.sender].point >= products[productId].pointValue,\"Insufficent points\");\n        // changes the owner of the product\n        products[productId].owner = msg.sender;\n        // spends points to buy the product\n        customers[msg.sender].point -= products[productId].pointValue;\n    }\n}\n",
  "sourcePath": "/home/isaac/code/isaac/shop/contracts/Shop.sol",
  "compiler": {
    "name": "solc",
    "version": "0.5.0+commit.1d4f565a.Emscripten.clang"
  },
  "schemaVersion": "3.0.1",
  "updatedAt": "2024-02-18T18:07:03.529Z",
  "devdoc": {
    "methods": {}
  },
  "userdoc": {
    "methods": {}
  }
}